{
  "_format": "hh-sol-artifact-1",
  "contractName": "NFT",
  "sourceName": "contracts/NFT.sol",
  "abi": [
    {
      "inputs": [
        {
          "internalType": "address",
          "name": "systemContractAddress",
          "type": "address"
        }
      ],
      "stateMutability": "nonpayable",
      "type": "constructor"
    },
    {
      "inputs": [],
      "name": "CallerNotOwnerNotApproved",
      "type": "error"
    },
    {
      "inputs": [
        {
          "internalType": "string",
          "name": "",
          "type": "string"
        }
      ],
      "name": "OnlySystemContract",
      "type": "error"
    },
    {
      "anonymous": false,
      "inputs": [
        {
          "indexed": true,
          "internalType": "address",
          "name": "owner",
          "type": "address"
        },
        {
          "indexed": true,
          "internalType": "address",
          "name": "approved",
          "type": "address"
        },
        {
          "indexed": true,
          "internalType": "uint256",
          "name": "tokenId",
          "type": "uint256"
        }
      ],
      "name": "Approval",
      "type": "event"
    },
    {
      "anonymous": false,
      "inputs": [
        {
          "indexed": true,
          "internalType": "address",
          "name": "owner",
          "type": "address"
        },
        {
          "indexed": true,
          "internalType": "address",
          "name": "operator",
          "type": "address"
        },
        {
          "indexed": false,
          "internalType": "bool",
          "name": "approved",
          "type": "bool"
        }
      ],
      "name": "ApprovalForAll",
      "type": "event"
    },
    {
      "anonymous": false,
      "inputs": [
        {
          "indexed": false,
          "internalType": "uint256",
          "name": "tokenId",
          "type": "uint256"
        }
      ],
      "name": "GameDataUpdated",
      "type": "event"
    },
    {
      "anonymous": false,
      "inputs": [
        {
          "indexed": true,
          "internalType": "address",
          "name": "from",
          "type": "address"
        },
        {
          "indexed": true,
          "internalType": "address",
          "name": "to",
          "type": "address"
        },
        {
          "indexed": true,
          "internalType": "uint256",
          "name": "tokenId",
          "type": "uint256"
        }
      ],
      "name": "Transfer",
      "type": "event"
    },
    {
      "anonymous": false,
      "inputs": [
        {
          "indexed": false,
          "internalType": "uint256",
          "name": "tokenId",
          "type": "uint256"
        },
        {
          "indexed": false,
          "internalType": "address",
          "name": "user",
          "type": "address"
        }
      ],
      "name": "UGIMinted",
      "type": "event"
    },
    {
      "inputs": [
        {
          "internalType": "address",
          "name": "to",
          "type": "address"
        },
        {
          "internalType": "uint256",
          "name": "tokenId",
          "type": "uint256"
        }
      ],
      "name": "approve",
      "outputs": [],
      "stateMutability": "nonpayable",
      "type": "function"
    },
    {
      "inputs": [
        {
          "internalType": "address",
          "name": "owner",
          "type": "address"
        }
      ],
      "name": "balanceOf",
      "outputs": [
        {
          "internalType": "uint256",
          "name": "",
          "type": "uint256"
        }
      ],
      "stateMutability": "view",
      "type": "function"
    },
    {
      "inputs": [
        {
          "internalType": "uint256",
          "name": "tokenId",
          "type": "uint256"
        },
        {
          "internalType": "bytes",
          "name": "recipient",
          "type": "bytes"
        }
      ],
      "name": "burnUGI",
      "outputs": [],
      "stateMutability": "nonpayable",
      "type": "function"
    },
    {
      "inputs": [
        {
          "internalType": "uint256",
          "name": "tokenId",
          "type": "uint256"
        }
      ],
      "name": "getApproved",
      "outputs": [
        {
          "internalType": "address",
          "name": "",
          "type": "address"
        }
      ],
      "stateMutability": "view",
      "type": "function"
    },
    {
      "inputs": [
        {
          "internalType": "uint256",
          "name": "tokenId",
          "type": "uint256"
        }
      ],
      "name": "getGameData",
      "outputs": [
        {
          "internalType": "uint256",
          "name": "totalGamesPlayed",
          "type": "uint256"
        },
        {
          "components": [
            {
              "internalType": "uint256",
              "name": "gameId",
              "type": "uint256"
            },
            {
              "internalType": "uint256",
              "name": "achievementId",
              "type": "uint256"
            },
            {
              "internalType": "uint256",
              "name": "timestamp",
              "type": "uint256"
            },
            {
              "internalType": "bytes",
              "name": "metadata",
              "type": "bytes"
            }
          ],
          "internalType": "struct NFT.Achievement[]",
          "name": "achievements",
          "type": "tuple[]"
        }
      ],
      "stateMutability": "view",
      "type": "function"
    },
    {
      "inputs": [
        {
          "internalType": "address",
          "name": "owner",
          "type": "address"
        },
        {
          "internalType": "address",
          "name": "operator",
          "type": "address"
        }
      ],
      "name": "isApprovedForAll",
      "outputs": [
        {
          "internalType": "bool",
          "name": "",
          "type": "bool"
        }
      ],
      "stateMutability": "view",
      "type": "function"
    },
    {
      "inputs": [
        {
          "internalType": "address",
          "name": "user",
          "type": "address"
        },
        {
          "internalType": "uint256",
          "name": "amount",
          "type": "uint256"
        }
      ],
      "name": "mintUGI",
      "outputs": [],
      "stateMutability": "nonpayable",
      "type": "function"
    },
    {
      "inputs": [],
      "name": "name",
      "outputs": [
        {
          "internalType": "string",
          "name": "",
          "type": "string"
        }
      ],
      "stateMutability": "view",
      "type": "function"
    },
    {
      "inputs": [
        {
          "components": [
            {
              "internalType": "bytes",
              "name": "origin",
              "type": "bytes"
            },
            {
              "internalType": "address",
              "name": "sender",
              "type": "address"
            },
            {
              "internalType": "uint256",
              "name": "chainID",
              "type": "uint256"
            }
          ],
          "internalType": "struct zContext",
          "name": "context",
          "type": "tuple"
        },
        {
          "internalType": "address",
          "name": "zrc20",
          "type": "address"
        },
        {
          "internalType": "uint256",
          "name": "amount",
          "type": "uint256"
        },
        {
          "internalType": "bytes",
          "name": "message",
          "type": "bytes"
        }
      ],
      "name": "onCrossChainCall",
      "outputs": [],
      "stateMutability": "nonpayable",
      "type": "function"
    },
    {
      "inputs": [
        {
          "internalType": "uint256",
          "name": "tokenId",
          "type": "uint256"
        }
      ],
      "name": "ownerOf",
      "outputs": [
        {
          "internalType": "address",
          "name": "",
          "type": "address"
        }
      ],
      "stateMutability": "view",
      "type": "function"
    },
    {
      "inputs": [
        {
          "internalType": "address",
          "name": "from",
          "type": "address"
        },
        {
          "internalType": "address",
          "name": "to",
          "type": "address"
        },
        {
          "internalType": "uint256",
          "name": "tokenId",
          "type": "uint256"
        }
      ],
      "name": "safeTransferFrom",
      "outputs": [],
      "stateMutability": "nonpayable",
      "type": "function"
    },
    {
      "inputs": [
        {
          "internalType": "address",
          "name": "from",
          "type": "address"
        },
        {
          "internalType": "address",
          "name": "to",
          "type": "address"
        },
        {
          "internalType": "uint256",
          "name": "tokenId",
          "type": "uint256"
        },
        {
          "internalType": "bytes",
          "name": "data",
          "type": "bytes"
        }
      ],
      "name": "safeTransferFrom",
      "outputs": [],
      "stateMutability": "nonpayable",
      "type": "function"
    },
    {
      "inputs": [
        {
          "internalType": "address",
          "name": "operator",
          "type": "address"
        },
        {
          "internalType": "bool",
          "name": "approved",
          "type": "bool"
        }
      ],
      "name": "setApprovalForAll",
      "outputs": [],
      "stateMutability": "nonpayable",
      "type": "function"
    },
    {
      "inputs": [
        {
          "internalType": "bytes4",
          "name": "interfaceId",
          "type": "bytes4"
        }
      ],
      "name": "supportsInterface",
      "outputs": [
        {
          "internalType": "bool",
          "name": "",
          "type": "bool"
        }
      ],
      "stateMutability": "view",
      "type": "function"
    },
    {
      "inputs": [],
      "name": "symbol",
      "outputs": [
        {
          "internalType": "string",
          "name": "",
          "type": "string"
        }
      ],
      "stateMutability": "view",
      "type": "function"
    },
    {
      "inputs": [],
      "name": "systemContract",
      "outputs": [
        {
          "internalType": "contract SystemContract",
          "name": "",
          "type": "address"
        }
      ],
      "stateMutability": "view",
      "type": "function"
    },
    {
      "inputs": [
        {
          "internalType": "uint256",
          "name": "",
          "type": "uint256"
        }
      ],
      "name": "tokenAmounts",
      "outputs": [
        {
          "internalType": "uint256",
          "name": "",
          "type": "uint256"
        }
      ],
      "stateMutability": "view",
      "type": "function"
    },
    {
      "inputs": [
        {
          "internalType": "uint256",
          "name": "",
          "type": "uint256"
        }
      ],
      "name": "tokenChains",
      "outputs": [
        {
          "internalType": "uint256",
          "name": "",
          "type": "uint256"
        }
      ],
      "stateMutability": "view",
      "type": "function"
    },
    {
      "inputs": [
        {
          "internalType": "uint256",
          "name": "",
          "type": "uint256"
        }
      ],
      "name": "tokenGameData",
      "outputs": [
        {
          "internalType": "uint256",
          "name": "totalGamesPlayed",
          "type": "uint256"
        },
        {
          "internalType": "uint256",
          "name": "achievementCount",
          "type": "uint256"
        }
      ],
      "stateMutability": "view",
      "type": "function"
    },
    {
      "inputs": [
        {
          "internalType": "uint256",
          "name": "tokenId",
          "type": "uint256"
        }
      ],
      "name": "tokenURI",
      "outputs": [
        {
          "internalType": "string",
          "name": "",
          "type": "string"
        }
      ],
      "stateMutability": "view",
      "type": "function"
    },
    {
      "inputs": [
        {
          "internalType": "address",
          "name": "from",
          "type": "address"
        },
        {
          "internalType": "address",
          "name": "to",
          "type": "address"
        },
        {
          "internalType": "uint256",
          "name": "tokenId",
          "type": "uint256"
        }
      ],
      "name": "transferFrom",
      "outputs": [],
      "stateMutability": "nonpayable",
      "type": "function"
    },
    {
      "inputs": [
        {
          "internalType": "uint256",
          "name": "tokenId",
          "type": "uint256"
        },
        {
          "internalType": "bytes",
          "name": "gameData",
          "type": "bytes"
        }
      ],
      "name": "updateGameData",
      "outputs": [],
      "stateMutability": "nonpayable",
      "type": "function"
    }
  ],
  "bytecode": "0x60806040523480156200001157600080fd5b5060405162003e0238038062003e028339818101604052810190620000379190620001ee565b6040518060400160405280601781526020017f556e6976657273616c47616d696e674964656e746974790000000000000000008152506040518060400160405280600381526020017f55474900000000000000000000000000000000000000000000000000000000008152508160009080519060200190620000bb92919062000127565b508060019080519060200190620000d492919062000127565b50505080600660006101000a81548173ffffffffffffffffffffffffffffffffffffffff021916908373ffffffffffffffffffffffffffffffffffffffff1602179055506000600a8190555050620002d8565b828054620001359062000254565b90600052602060002090601f016020900481019282620001595760008555620001a5565b82601f106200017457805160ff1916838001178555620001a5565b82800160010185558215620001a5579182015b82811115620001a457825182559160200191906001019062000187565b5b509050620001b49190620001b8565b5090565b5b80821115620001d3576000816000905550600101620001b9565b5090565b600081519050620001e881620002be565b92915050565b600060208284031215620002075762000206620002b9565b5b60006200021784828501620001d7565b91505092915050565b60006200022d8262000234565b9050919050565b600073ffffffffffffffffffffffffffffffffffffffff82169050919050565b600060028204905060018216806200026d57607f821691505b602082108114156200028457620002836200028a565b5b50919050565b7f4e487b7100000000000000000000000000000000000000000000000000000000600052602260045260246000fd5b600080fd5b620002c98162000220565b8114620002d557600080fd5b50565b613b1a80620002e86000396000f3fe608060405234801561001057600080fd5b50600436106101425760003560e01c806376dcdf8a116100b8578063b714d0d71161007c578063b714d0d714610398578063b88d4fde146103c9578063bb88b769146103e5578063c87b56dd14610403578063de43156e14610433578063e985e9c51461044f57610142565b806376dcdf8a146102e157806395d89b41146102fd5780639ad280c01461031b578063a22cb4651461034b578063b6a656651461036757610142565b80631ad50b731161010a5780631ad50b731461021157806323b872dd1461022d57806342842e0e146102495780634c5e0e8c146102655780636352211e1461028157806370a08231146102b157610142565b806301ffc9a71461014757806306fdde0314610177578063081812fc14610195578063095ea7b3146101c55780630ba111c2146101e1575b600080fd5b610161600480360381019061015c9190612919565b61047f565b60405161016e9190612fea565b60405180910390f35b61017f610561565b60405161018c9190613050565b60405180910390f35b6101af60048036038101906101aa9190612a17565b6105f3565b6040516101bc9190612f5a565b60405180910390f35b6101df60048036038101906101da919061286c565b610639565b005b6101fb60048036038101906101f69190612a17565b610751565b6040516102089190613212565b60405180910390f35b61022b60048036038101906102269190612aa0565b610769565b005b61024760048036038101906102429190612756565b6108f2565b005b610263600480360381019061025e9190612756565b610952565b005b61027f600480360381019061027a9190612b00565b610972565b005b61029b60048036038101906102969190612a17565b610c65565b6040516102a89190612f5a565b60405180910390f35b6102cb60048036038101906102c6919061268f565b610cec565b6040516102d89190613212565b60405180910390f35b6102fb60048036038101906102f6919061286c565b610da4565b005b610305610db3565b6040516103129190613050565b60405180910390f35b61033560048036038101906103309190612a17565b610e45565b6040516103429190613212565b60405180910390f35b6103656004803603810190610360919061282c565b610e5d565b005b610381600480360381019061037c9190612a17565b610e73565b60405161038f929190613256565b60405180910390f35b6103b260048036038101906103ad9190612a17565b611006565b6040516103c0929190613286565b60405180910390f35b6103e360048036038101906103de91906127a9565b61102a565b005b6103ed61108c565b6040516103fa9190613035565b60405180910390f35b61041d60048036038101906104189190612a17565b6110b2565b60405161042a9190613050565b60405180910390f35b61044d60048036038101906104489190612973565b61111a565b005b61046960048036038101906104649190612716565b6111f8565b6040516104769190612fea565b60405180910390f35b60007f80ac58cd000000000000000000000000000000000000000000000000000000007bffffffffffffffffffffffffffffffffffffffffffffffffffffffff1916827bffffffffffffffffffffffffffffffffffffffffffffffffffffffff1916148061054a57507f5b5e139f000000000000000000000000000000000000000000000000000000007bffffffffffffffffffffffffffffffffffffffffffffffffffffffff1916827bffffffffffffffffffffffffffffffffffffffffffffffffffffffff1916145b8061055a57506105598261128c565b5b9050919050565b6060600080546105709061354d565b80601f016020809104026020016040519081016040528092919081815260200182805461059c9061354d565b80156105e95780601f106105be576101008083540402835291602001916105e9565b820191906000526020600020905b8154815290600101906020018083116105cc57829003601f168201915b5050505050905090565b60006105fe826112f6565b6004600083815260200190815260200160002060009054906101000a900473ffffffffffffffffffffffffffffffffffffffff169050919050565b600061064482610c65565b90508073ffffffffffffffffffffffffffffffffffffffff168373ffffffffffffffffffffffffffffffffffffffff1614156106b5576040517f08c379a00000000000000000000000000000000000000000000000000000000081526004016106ac906131d2565b60405180910390fd5b8073ffffffffffffffffffffffffffffffffffffffff166106d4611341565b73ffffffffffffffffffffffffffffffffffffffff1614806107035750610702816106fd611341565b6111f8565b5b610742576040517f08c379a0000000000000000000000000000000000000000000000000000000008152600401610739906131f2565b60405180910390fd5b61074c8383611349565b505050565b60086020528060005260406000206000915090505481565b61077a610774611341565b84611402565b6107b9576040517f08c379a00000000000000000000000000000000000000000000000000000000081526004016107b090613172565b60405180910390fd5b60008083838101906107cb9190612a44565b915091506000600760008781526020019081526020016000209050828160000160008282546107fa91906133f9565b9250508190555060005b82518110156108b25760008260010154905083828151811061082957610828613686565b5b602002602001015183600201600083815260200190815260200160002060008201518160000155602082015181600101556040820151816002015560608201518160030190805190602001906108809291906122d2565b50905050826001016000815480929190610899906135b0565b91905055505080806108aa906135b0565b915050610804565b507f7b3d97e0a836fb8a2d605ef64e58448f31155750b3c417d1c6d977caf5712001866040516108e29190613212565b60405180910390a1505050505050565b6109036108fd611341565b82611402565b610942576040517f08c379a000000000000000000000000000000000000000000000000000000000815260040161093990613072565b60405180910390fd5b61094d838383611497565b505050565b61096d8383836040518060200160405280600081525061102a565b505050565b61098361097d611341565b83611402565b6109b9576040517fcdf9253f00000000000000000000000000000000000000000000000000000000815260040160405180910390fd5b6000600660009054906101000a900473ffffffffffffffffffffffffffffffffffffffff1673ffffffffffffffffffffffffffffffffffffffff16630be1554760086000868152602001908152602001600020546040518263ffffffff1660e01b8152600401610a299190613212565b60206040518083038186803b158015610a4157600080fd5b505afa158015610a55573d6000803e3d6000fd5b505050506040513d601f19601f82011682018060405250810190610a7991906126bc565b905060008173ffffffffffffffffffffffffffffffffffffffff1663d9eeebed6040518163ffffffff1660e01b8152600401604080518083038186803b158015610ac257600080fd5b505afa158015610ad6573d6000803e3d6000fd5b505050506040513d601f19601f82011682018060405250810190610afa91906128ac565b9150508173ffffffffffffffffffffffffffffffffffffffff1663095ea7b383836040518363ffffffff1660e01b8152600401610b38929190612fc1565b602060405180830381600087803b158015610b5257600080fd5b505af1158015610b66573d6000803e3d6000fd5b505050506040513d601f19601f82011682018060405250810190610b8a91906128ec565b508173ffffffffffffffffffffffffffffffffffffffff1663c701262684836040518363ffffffff1660e01b8152600401610bc6929190613005565b602060405180830381600087803b158015610be057600080fd5b505af1158015610bf4573d6000803e3d6000fd5b505050506040513d601f19601f82011682018060405250810190610c1891906128ec565b50610c2284611791565b6007600085815260200190815260200160002060008082016000905560018201600090555050600860008581526020019081526020016000206000905550505050565b600080610c71836118df565b9050600073ffffffffffffffffffffffffffffffffffffffff168173ffffffffffffffffffffffffffffffffffffffff161415610ce3576040517f08c379a0000000000000000000000000000000000000000000000000000000008152600401610cda906131b2565b60405180910390fd5b80915050919050565b60008073ffffffffffffffffffffffffffffffffffffffff168273ffffffffffffffffffffffffffffffffffffffff161415610d5d576040517f08c379a0000000000000000000000000000000000000000000000000000000008152600401610d5490613152565b60405180910390fd5b600360008373ffffffffffffffffffffffffffffffffffffffff1673ffffffffffffffffffffffffffffffffffffffff168152602001908152602001600020549050919050565b610daf82468361191c565b5050565b606060018054610dc29061354d565b80601f0160208091040260200160405190810160405280929190818152602001828054610dee9061354d565b8015610e3b5780601f10610e1057610100808354040283529160200191610e3b565b820191906000526020600020905b815481529060010190602001808311610e1e57829003601f168201915b5050505050905090565b60096020528060005260406000206000915090505481565b610e6f610e68611341565b83836119b4565b5050565b60006060600060076000858152602001908152602001600020905080600001549250806001015467ffffffffffffffff811115610eb357610eb26136b5565b5b604051908082528060200260200182016040528015610eec57816020015b610ed9612358565b815260200190600190039081610ed15790505b50915060005b8160010154811015610fff57816002016000828152602001908152602001600020604051806080016040529081600082015481526020016001820154815260200160028201548152602001600382018054610f4c9061354d565b80601f0160208091040260200160405190810160405280929190818152602001828054610f789061354d565b8015610fc55780601f10610f9a57610100808354040283529160200191610fc5565b820191906000526020600020905b815481529060010190602001808311610fa857829003601f168201915b505050505081525050838281518110610fe157610fe0613686565b5b60200260200101819052508080610ff7906135b0565b915050610ef2565b5050915091565b60076020528060005260406000206000915090508060000154908060010154905082565b61103b611035611341565b83611402565b61107a576040517f08c379a000000000000000000000000000000000000000000000000000000000815260040161107190613072565b60405180910390fd5b61108684848484611b21565b50505050565b600660009054906101000a900473ffffffffffffffffffffffffffffffffffffffff1681565b60606110bd826112f6565b60006110c7611b7d565b905060008151116110e75760405180602001604052806000815250611112565b806110f184611b94565b604051602001611102929190612f36565b6040516020818303038152906040525b915050919050565b600660009054906101000a900473ffffffffffffffffffffffffffffffffffffffff168073ffffffffffffffffffffffffffffffffffffffff163373ffffffffffffffffffffffffffffffffffffffff16146111ab576040517f14c6658d0000000000000000000000000000000000000000000000000000000081526004016111a2906130b2565b60405180910390fd5b600061479c876040013514156111ce576111c784846000611c6c565b90506111e0565b83838101906111dd91906126e9565b90505b6111ef8188604001358761191c565b50505050505050565b6000600560008473ffffffffffffffffffffffffffffffffffffffff1673ffffffffffffffffffffffffffffffffffffffff16815260200190815260200160002060008373ffffffffffffffffffffffffffffffffffffffff1673ffffffffffffffffffffffffffffffffffffffff16815260200190815260200160002060009054906101000a900460ff16905092915050565b60007f01ffc9a7000000000000000000000000000000000000000000000000000000007bffffffffffffffffffffffffffffffffffffffffffffffffffffffff1916827bffffffffffffffffffffffffffffffffffffffffffffffffffffffff1916149050919050565b6112ff81611ce1565b61133e576040517f08c379a0000000000000000000000000000000000000000000000000000000008152600401611335906131b2565b60405180910390fd5b50565b600033905090565b816004600083815260200190815260200160002060006101000a81548173ffffffffffffffffffffffffffffffffffffffff021916908373ffffffffffffffffffffffffffffffffffffffff160217905550808273ffffffffffffffffffffffffffffffffffffffff166113bc83610c65565b73ffffffffffffffffffffffffffffffffffffffff167f8c5be1e5ebec7d5bd14f71427d1e84f3dd0314c0f7b2291e5b200ac8c7c3b92560405160405180910390a45050565b60008061140e83610c65565b90508073ffffffffffffffffffffffffffffffffffffffff168473ffffffffffffffffffffffffffffffffffffffff161480611450575061144f81856111f8565b5b8061148e57508373ffffffffffffffffffffffffffffffffffffffff16611476846105f3565b73ffffffffffffffffffffffffffffffffffffffff16145b91505092915050565b8273ffffffffffffffffffffffffffffffffffffffff166114b782610c65565b73ffffffffffffffffffffffffffffffffffffffff161461150d576040517f08c379a0000000000000000000000000000000000000000000000000000000008152600401611504906130d2565b60405180910390fd5b600073ffffffffffffffffffffffffffffffffffffffff168273ffffffffffffffffffffffffffffffffffffffff16141561157d576040517f08c379a000000000000000000000000000000000000000000000000000000000815260040161157490613112565b60405180910390fd5b61158a8383836001611d22565b8273ffffffffffffffffffffffffffffffffffffffff166115aa82610c65565b73ffffffffffffffffffffffffffffffffffffffff1614611600576040517f08c379a00000000000000000000000000000000000000000000000000000000081526004016115f7906130d2565b60405180910390fd5b6004600082815260200190815260200160002060006101000a81549073ffffffffffffffffffffffffffffffffffffffff02191690556001600360008573ffffffffffffffffffffffffffffffffffffffff1673ffffffffffffffffffffffffffffffffffffffff168152602001908152602001600020600082825403925050819055506001600360008473ffffffffffffffffffffffffffffffffffffffff1673ffffffffffffffffffffffffffffffffffffffff16815260200190815260200160002060008282540192505081905550816002600083815260200190815260200160002060006101000a81548173ffffffffffffffffffffffffffffffffffffffff021916908373ffffffffffffffffffffffffffffffffffffffff160217905550808273ffffffffffffffffffffffffffffffffffffffff168473ffffffffffffffffffffffffffffffffffffffff167fddf252ad1be2c89b69c2b068fc378daa952ba7f163c4a11628f55a4df523b3ef60405160405180910390a461178c8383836001611d28565b505050565b600061179c82610c65565b90506117ac816000846001611d22565b6117b582610c65565b90506004600083815260200190815260200160002060006101000a81549073ffffffffffffffffffffffffffffffffffffffff02191690556001600360008373ffffffffffffffffffffffffffffffffffffffff1673ffffffffffffffffffffffffffffffffffffffff168152602001908152602001600020600082825403925050819055506002600083815260200190815260200160002060006101000a81549073ffffffffffffffffffffffffffffffffffffffff021916905581600073ffffffffffffffffffffffffffffffffffffffff168273ffffffffffffffffffffffffffffffffffffffff167fddf252ad1be2c89b69c2b068fc378daa952ba7f163c4a11628f55a4df523b3ef60405160405180910390a46118db816000846001611d28565b5050565b60006002600083815260200190815260200160002060009054906101000a900473ffffffffffffffffffffffffffffffffffffffff169050919050565b6000600a54905061192d8482611d2e565b826008600083815260200190815260200160002081905550816009600083815260200190815260200160002081905550600a6000815480929190611970906135b0565b91905055507feeaa83a78ccf16ad12ecf574b4155aebe6b0de5fbabab61faa2cdb74b4615eaa81856040516119a692919061322d565b60405180910390a150505050565b8173ffffffffffffffffffffffffffffffffffffffff168373ffffffffffffffffffffffffffffffffffffffff161415611a23576040517f08c379a0000000000000000000000000000000000000000000000000000000008152600401611a1a90613132565b60405180910390fd5b80600560008573ffffffffffffffffffffffffffffffffffffffff1673ffffffffffffffffffffffffffffffffffffffff16815260200190815260200160002060008473ffffffffffffffffffffffffffffffffffffffff1673ffffffffffffffffffffffffffffffffffffffff16815260200190815260200160002060006101000a81548160ff0219169083151502179055508173ffffffffffffffffffffffffffffffffffffffff168373ffffffffffffffffffffffffffffffffffffffff167f17307eab39ab6107e8899845ad3d59bd9653f200f220920489ca2b5937696c3183604051611b149190612fea565b60405180910390a3505050565b611b2c848484611497565b611b3884848484611d4c565b611b77576040517f08c379a0000000000000000000000000000000000000000000000000000000008152600401611b6e90613092565b60405180910390fd5b50505050565b606060405180602001604052806000815250905090565b606060006001611ba384611ee3565b01905060008167ffffffffffffffff811115611bc257611bc16136b5565b5b6040519080825280601f01601f191660200182016040528015611bf45781602001600182028036833780820191505090505b509050600082602001820190505b600115611c61578080600190039150507f3031323334353637383961626364656600000000000000000000000000000000600a86061a8153600a8581611c4b57611c4a613628565b5b0494506000851415611c5c57611c61565b611c02565b819350505050919050565b60008084848490601486611c8091906133f9565b92611c8d939291906133be565b8080601f016020809104026020016040519081016040528093929190818152602001838380828437600081840152601f19601f82011690508083019250505050505050905060148101519150509392505050565b60008073ffffffffffffffffffffffffffffffffffffffff16611d03836118df565b73ffffffffffffffffffffffffffffffffffffffff1614159050919050565b50505050565b50505050565b611d48828260405180602001604052806000815250612036565b5050565b6000611d6d8473ffffffffffffffffffffffffffffffffffffffff16612091565b15611ed6578373ffffffffffffffffffffffffffffffffffffffff1663150b7a02611d96611341565b8786866040518563ffffffff1660e01b8152600401611db89493929190612f75565b602060405180830381600087803b158015611dd257600080fd5b505af1925050508015611e0357506040513d601f19601f82011682018060405250810190611e009190612946565b60015b611e86573d8060008114611e33576040519150601f19603f3d011682016040523d82523d6000602084013e611e38565b606091505b50600081511415611e7e576040517f08c379a0000000000000000000000000000000000000000000000000000000008152600401611e7590613092565b60405180910390fd5b805181602001fd5b63150b7a0260e01b7bffffffffffffffffffffffffffffffffffffffffffffffffffffffff1916817bffffffffffffffffffffffffffffffffffffffffffffffffffffffff191614915050611edb565b600190505b949350505050565b600080600090507a184f03e93ff9f4daa797ed6e38ed64bf6a1f0100000000000000008310611f41577a184f03e93ff9f4daa797ed6e38ed64bf6a1f0100000000000000008381611f3757611f36613628565b5b0492506040810190505b6d04ee2d6d415b85acef81000000008310611f7e576d04ee2d6d415b85acef81000000008381611f7457611f73613628565b5b0492506020810190505b662386f26fc100008310611fad57662386f26fc100008381611fa357611fa2613628565b5b0492506010810190505b6305f5e1008310611fd6576305f5e1008381611fcc57611fcb613628565b5b0492506008810190505b6127108310611ffb576127108381611ff157611ff0613628565b5b0492506004810190505b6064831061201e576064838161201457612013613628565b5b0492506002810190505b600a831061202d576001810190505b80915050919050565b61204083836120b4565b61204d6000848484611d4c565b61208c576040517f08c379a000000000000000000000000000000000000000000000000000000000815260040161208390613092565b60405180910390fd5b505050565b6000808273ffffffffffffffffffffffffffffffffffffffff163b119050919050565b600073ffffffffffffffffffffffffffffffffffffffff168273ffffffffffffffffffffffffffffffffffffffff161415612124576040517f08c379a000000000000000000000000000000000000000000000000000000000815260040161211b90613192565b60405180910390fd5b61212d81611ce1565b1561216d576040517f08c379a0000000000000000000000000000000000000000000000000000000008152600401612164906130f2565b60405180910390fd5b61217b600083836001611d22565b61218481611ce1565b156121c4576040517f08c379a00000000000000000000000000000000000000000000000000000000081526004016121bb906130f2565b60405180910390fd5b6001600360008473ffffffffffffffffffffffffffffffffffffffff1673ffffffffffffffffffffffffffffffffffffffff16815260200190815260200160002060008282540192505081905550816002600083815260200190815260200160002060006101000a81548173ffffffffffffffffffffffffffffffffffffffff021916908373ffffffffffffffffffffffffffffffffffffffff160217905550808273ffffffffffffffffffffffffffffffffffffffff16600073ffffffffffffffffffffffffffffffffffffffff167fddf252ad1be2c89b69c2b068fc378daa952ba7f163c4a11628f55a4df523b3ef60405160405180910390a46122ce600083836001611d28565b5050565b8280546122de9061354d565b90600052602060002090601f0160209004810192826123005760008555612347565b82601f1061231957805160ff1916838001178555612347565b82800160010185558215612347579182015b8281111561234657825182559160200191906001019061232b565b5b5090506123549190612380565b5090565b6040518060800160405280600081526020016000815260200160008152602001606081525090565b5b80821115612399576000816000905550600101612381565b5090565b60006123b06123ab846132d4565b6132af565b905080838252602082019050828560208602820111156123d3576123d2613707565b5b60005b8581101561242157813567ffffffffffffffff8111156123f9576123f86136e9565b5b80860161240689826125b2565b855260208501945060208401935050506001810190506123d6565b5050509392505050565b600061243e61243984613300565b6132af565b90508281526020810184848401111561245a5761245961370c565b5b61246584828561350b565b509392505050565b60008135905061247c81613a71565b92915050565b60008151905061249181613a71565b92915050565b6000813590506124a681613a88565b92915050565b600082601f8301126124c1576124c06136e9565b5b81356124d184826020860161239d565b91505092915050565b6000813590506124e981613a9f565b92915050565b6000815190506124fe81613a9f565b92915050565b60008135905061251381613ab6565b92915050565b60008151905061252881613ab6565b92915050565b60008083601f840112612544576125436136e9565b5b8235905067ffffffffffffffff811115612561576125606136e4565b5b60208301915083600182028301111561257d5761257c613707565b5b9250929050565b600082601f830112612599576125986136e9565b5b81356125a984826020860161242b565b91505092915050565b6000608082840312156125c8576125c76136f3565b5b6125d260806132af565b905060006125e284828501612665565b60008301525060206125f684828501612665565b602083015250604061260a84828501612665565b604083015250606082013567ffffffffffffffff81111561262e5761262d6136fd565b5b61263a84828501612584565b60608301525092915050565b60006060828403121561265c5761265b6136ee565b5b81905092915050565b60008135905061267481613acd565b92915050565b60008151905061268981613acd565b92915050565b6000602082840312156126a5576126a4613716565b5b60006126b38482850161246d565b91505092915050565b6000602082840312156126d2576126d1613716565b5b60006126e084828501612482565b91505092915050565b6000602082840312156126ff576126fe613716565b5b600061270d84828501612497565b91505092915050565b6000806040838503121561272d5761272c613716565b5b600061273b8582860161246d565b925050602061274c8582860161246d565b9150509250929050565b60008060006060848603121561276f5761276e613716565b5b600061277d8682870161246d565b935050602061278e8682870161246d565b925050604061279f86828701612665565b9150509250925092565b600080600080608085870312156127c3576127c2613716565b5b60006127d18782880161246d565b94505060206127e28782880161246d565b93505060406127f387828801612665565b925050606085013567ffffffffffffffff81111561281457612813613711565b5b61282087828801612584565b91505092959194509250565b6000806040838503121561284357612842613716565b5b60006128518582860161246d565b9250506020612862858286016124da565b9150509250929050565b6000806040838503121561288357612882613716565b5b60006128918582860161246d565b92505060206128a285828601612665565b9150509250929050565b600080604083850312156128c3576128c2613716565b5b60006128d185828601612482565b92505060206128e28582860161267a565b9150509250929050565b60006020828403121561290257612901613716565b5b6000612910848285016124ef565b91505092915050565b60006020828403121561292f5761292e613716565b5b600061293d84828501612504565b91505092915050565b60006020828403121561295c5761295b613716565b5b600061296a84828501612519565b91505092915050565b60008060008060006080868803121561298f5761298e613716565b5b600086013567ffffffffffffffff8111156129ad576129ac613711565b5b6129b988828901612646565b95505060206129ca8882890161246d565b94505060406129db88828901612665565b935050606086013567ffffffffffffffff8111156129fc576129fb613711565b5b612a088882890161252e565b92509250509295509295909350565b600060208284031215612a2d57612a2c613716565b5b6000612a3b84828501612665565b91505092915050565b60008060408385031215612a5b57612a5a613716565b5b6000612a6985828601612665565b925050602083013567ffffffffffffffff811115612a8a57612a89613711565b5b612a96858286016124ac565b9150509250929050565b600080600060408486031215612ab957612ab8613716565b5b6000612ac786828701612665565b935050602084013567ffffffffffffffff811115612ae857612ae7613711565b5b612af48682870161252e565b92509250509250925092565b60008060408385031215612b1757612b16613716565b5b6000612b2585828601612665565b925050602083013567ffffffffffffffff811115612b4657612b45613711565b5b612b5285828601612584565b9150509250929050565b6000612b688383612eb5565b905092915050565b612b798161344f565b82525050565b6000612b8a82613341565b612b94818561336f565b935083602082028501612ba685613331565b8060005b85811015612be25784840389528151612bc38582612b5c565b9450612bce83613362565b925060208a01995050600181019050612baa565b50829750879550505050505092915050565b612bfd81613473565b82525050565b6000612c0e8261334c565b612c188185613380565b9350612c2881856020860161351a565b612c318161371b565b840191505092915050565b6000612c478261334c565b612c518185613391565b9350612c6181856020860161351a565b612c6a8161371b565b840191505092915050565b612c7e816134d5565b82525050565b6000612c8f82613357565b612c9981856133a2565b9350612ca981856020860161351a565b612cb28161371b565b840191505092915050565b6000612cc882613357565b612cd281856133b3565b9350612ce281856020860161351a565b80840191505092915050565b6000612cfb602d836133a2565b9150612d068261372c565b604082019050919050565b6000612d1e6032836133a2565b9150612d298261377b565b604082019050919050565b6000612d41602b836133a2565b9150612d4c826137ca565b604082019050919050565b6000612d646025836133a2565b9150612d6f82613819565b604082019050919050565b6000612d87601c836133a2565b9150612d9282613868565b602082019050919050565b6000612daa6024836133a2565b9150612db582613891565b604082019050919050565b6000612dcd6019836133a2565b9150612dd8826138e0565b602082019050919050565b6000612df06029836133a2565b9150612dfb82613909565b604082019050919050565b6000612e136015836133a2565b9150612e1e82613958565b602082019050919050565b6000612e366020836133a2565b9150612e4182613981565b602082019050919050565b6000612e596018836133a2565b9150612e64826139aa565b602082019050919050565b6000612e7c6021836133a2565b9150612e87826139d3565b604082019050919050565b6000612e9f603d836133a2565b9150612eaa82613a22565b604082019050919050565b6000608083016000830151612ecd6000860182612f18565b506020830151612ee06020860182612f18565b506040830151612ef36040860182612f18565b5060608301518482036060860152612f0b8282612c03565b9150508091505092915050565b612f21816134cb565b82525050565b612f30816134cb565b82525050565b6000612f428285612cbd565b9150612f4e8284612cbd565b91508190509392505050565b6000602082019050612f6f6000830184612b70565b92915050565b6000608082019050612f8a6000830187612b70565b612f976020830186612b70565b612fa46040830185612f27565b8181036060830152612fb68184612c3c565b905095945050505050565b6000604082019050612fd66000830185612b70565b612fe36020830184612f27565b9392505050565b6000602082019050612fff6000830184612bf4565b92915050565b6000604082019050818103600083015261301f8185612c3c565b905061302e6020830184612f27565b9392505050565b600060208201905061304a6000830184612c75565b92915050565b6000602082019050818103600083015261306a8184612c84565b905092915050565b6000602082019050818103600083015261308b81612cee565b9050919050565b600060208201905081810360008301526130ab81612d11565b9050919050565b600060208201905081810360008301526130cb81612d34565b9050919050565b600060208201905081810360008301526130eb81612d57565b9050919050565b6000602082019050818103600083015261310b81612d7a565b9050919050565b6000602082019050818103600083015261312b81612d9d565b9050919050565b6000602082019050818103600083015261314b81612dc0565b9050919050565b6000602082019050818103600083015261316b81612de3565b9050919050565b6000602082019050818103600083015261318b81612e06565b9050919050565b600060208201905081810360008301526131ab81612e29565b9050919050565b600060208201905081810360008301526131cb81612e4c565b9050919050565b600060208201905081810360008301526131eb81612e6f565b9050919050565b6000602082019050818103600083015261320b81612e92565b9050919050565b60006020820190506132276000830184612f27565b92915050565b60006040820190506132426000830185612f27565b61324f6020830184612b70565b9392505050565b600060408201905061326b6000830185612f27565b818103602083015261327d8184612b7f565b90509392505050565b600060408201905061329b6000830185612f27565b6132a86020830184612f27565b9392505050565b60006132b96132ca565b90506132c5828261357f565b919050565b6000604051905090565b600067ffffffffffffffff8211156132ef576132ee6136b5565b5b602082029050602081019050919050565b600067ffffffffffffffff82111561331b5761331a6136b5565b5b6133248261371b565b9050602081019050919050565b6000819050602082019050919050565b600081519050919050565b600081519050919050565b600081519050919050565b6000602082019050919050565b600082825260208201905092915050565b600082825260208201905092915050565b600082825260208201905092915050565b600082825260208201905092915050565b600081905092915050565b600080858511156133d2576133d1613702565b5b838611156133e3576133e26136f8565b5b6001850283019150848603905094509492505050565b6000613404826134cb565b915061340f836134cb565b9250827fffffffffffffffffffffffffffffffffffffffffffffffffffffffffffffffff03821115613444576134436135f9565b5b828201905092915050565b600061345a826134ab565b9050919050565b600061346c826134ab565b9050919050565b60008115159050919050565b60007fffffffff0000000000000000000000000000000000000000000000000000000082169050919050565b600073ffffffffffffffffffffffffffffffffffffffff82169050919050565b6000819050919050565b60006134e0826134e7565b9050919050565b60006134f2826134f9565b9050919050565b6000613504826134ab565b9050919050565b82818337600083830152505050565b60005b8381101561353857808201518184015260208101905061351d565b83811115613547576000848401525b50505050565b6000600282049050600182168061356557607f821691505b6020821081141561357957613578613657565b5b50919050565b6135888261371b565b810181811067ffffffffffffffff821117156135a7576135a66136b5565b5b80604052505050565b60006135bb826134cb565b91507fffffffffffffffffffffffffffffffffffffffffffffffffffffffffffffffff8214156135ee576135ed6135f9565b5b600182019050919050565b7f4e487b7100000000000000000000000000000000000000000000000000000000600052601160045260246000fd5b7f4e487b7100000000000000000000000000000000000000000000000000000000600052601260045260246000fd5b7f4e487b7100000000000000000000000000000000000000000000000000000000600052602260045260246000fd5b7f4e487b7100000000000000000000000000000000000000000000000000000000600052603260045260246000fd5b7f4e487b7100000000000000000000000000000000000000000000000000000000600052604160045260246000fd5b600080fd5b600080fd5b600080fd5b600080fd5b600080fd5b600080fd5b600080fd5b600080fd5b600080fd5b600080fd5b600080fd5b6000601f19601f8301169050919050565b7f4552433732313a2063616c6c6572206973206e6f7420746f6b656e206f776e6560008201527f72206f7220617070726f76656400000000000000000000000000000000000000602082015250565b7f4552433732313a207472616e7366657220746f206e6f6e20455243373231526560008201527f63656976657220696d706c656d656e7465720000000000000000000000000000602082015250565b7f4f6e6c792073797374656d20636f6e74726163742063616e2063616c6c20746860008201527f69732066756e6374696f6e000000000000000000000000000000000000000000602082015250565b7f4552433732313a207472616e736665722066726f6d20696e636f72726563742060008201527f6f776e6572000000000000000000000000000000000000000000000000000000602082015250565b7f4552433732313a20746f6b656e20616c7265616479206d696e74656400000000600082015250565b7f4552433732313a207472616e7366657220746f20746865207a65726f2061646460008201527f7265737300000000000000000000000000000000000000000000000000000000602082015250565b7f4552433732313a20617070726f766520746f2063616c6c657200000000000000600082015250565b7f4552433732313a2061646472657373207a65726f206973206e6f74206120766160008201527f6c6964206f776e65720000000000000000000000000000000000000000000000602082015250565b7f4e6f74206f776e6572206f7220617070726f7665640000000000000000000000600082015250565b7f4552433732313a206d696e7420746f20746865207a65726f2061646472657373600082015250565b7f4552433732313a20696e76616c696420746f6b656e2049440000000000000000600082015250565b7f4552433732313a20617070726f76616c20746f2063757272656e74206f776e6560008201527f7200000000000000000000000000000000000000000000000000000000000000602082015250565b7f4552433732313a20617070726f76652063616c6c6572206973206e6f7420746f60008201527f6b656e206f776e6572206f7220617070726f76656420666f7220616c6c000000602082015250565b613a7a8161344f565b8114613a8557600080fd5b50565b613a9181613461565b8114613a9c57600080fd5b50565b613aa881613473565b8114613ab357600080fd5b50565b613abf8161347f565b8114613aca57600080fd5b50565b613ad6816134cb565b8114613ae157600080fd5b5056fea2646970667358221220de6691075391fd2bd5f0105f254df838182a8ac1693ff2ea9bdd27a73e8b420964736f6c63430008070033",
  "linkReferences": {},
  "deployedLinkReferences": {}
}