{
  "_format": "hh-sol-artifact-1",
  "contractName": "UGI",
  "sourceName": "contracts/NFT.sol",
  "abi": [
    {
      "inputs": [
        {
          "internalType": "address",
          "name": "systemContractAddress",
          "type": "address"
        }
      ],
      "stateMutability": "nonpayable",
      "type": "constructor"
    },
    {
      "inputs": [],
      "name": "AlreadyMinted",
      "type": "error"
    },
    {
      "inputs": [],
      "name": "CallerNotOwnerNotApproved",
      "type": "error"
    },
    {
      "inputs": [
        {
          "internalType": "string",
          "name": "",
          "type": "string"
        }
      ],
      "name": "OnlySystemContract",
      "type": "error"
    },
    {
      "anonymous": false,
      "inputs": [
        {
          "indexed": true,
          "internalType": "address",
          "name": "owner",
          "type": "address"
        },
        {
          "indexed": true,
          "internalType": "address",
          "name": "approved",
          "type": "address"
        },
        {
          "indexed": true,
          "internalType": "uint256",
          "name": "tokenId",
          "type": "uint256"
        }
      ],
      "name": "Approval",
      "type": "event"
    },
    {
      "anonymous": false,
      "inputs": [
        {
          "indexed": true,
          "internalType": "address",
          "name": "owner",
          "type": "address"
        },
        {
          "indexed": true,
          "internalType": "address",
          "name": "operator",
          "type": "address"
        },
        {
          "indexed": false,
          "internalType": "bool",
          "name": "approved",
          "type": "bool"
        }
      ],
      "name": "ApprovalForAll",
      "type": "event"
    },
    {
      "anonymous": false,
      "inputs": [
        {
          "indexed": false,
          "internalType": "uint256",
          "name": "tokenId",
          "type": "uint256"
        }
      ],
      "name": "GameDataUpdated",
      "type": "event"
    },
    {
      "anonymous": false,
      "inputs": [
        {
          "indexed": true,
          "internalType": "address",
          "name": "from",
          "type": "address"
        },
        {
          "indexed": true,
          "internalType": "address",
          "name": "to",
          "type": "address"
        },
        {
          "indexed": true,
          "internalType": "uint256",
          "name": "tokenId",
          "type": "uint256"
        }
      ],
      "name": "Transfer",
      "type": "event"
    },
    {
      "anonymous": false,
      "inputs": [
        {
          "indexed": false,
          "internalType": "uint256",
          "name": "tokenId",
          "type": "uint256"
        },
        {
          "indexed": false,
          "internalType": "address",
          "name": "user",
          "type": "address"
        }
      ],
      "name": "UGIMinted",
      "type": "event"
    },
    {
      "inputs": [
        {
          "internalType": "address",
          "name": "to",
          "type": "address"
        },
        {
          "internalType": "uint256",
          "name": "tokenId",
          "type": "uint256"
        }
      ],
      "name": "approve",
      "outputs": [],
      "stateMutability": "nonpayable",
      "type": "function"
    },
    {
      "inputs": [
        {
          "internalType": "address",
          "name": "owner",
          "type": "address"
        }
      ],
      "name": "balanceOf",
      "outputs": [
        {
          "internalType": "uint256",
          "name": "",
          "type": "uint256"
        }
      ],
      "stateMutability": "view",
      "type": "function"
    },
    {
      "inputs": [
        {
          "internalType": "uint256",
          "name": "tokenId",
          "type": "uint256"
        },
        {
          "internalType": "bytes",
          "name": "recipient",
          "type": "bytes"
        }
      ],
      "name": "burnUGI",
      "outputs": [],
      "stateMutability": "nonpayable",
      "type": "function"
    },
    {
      "inputs": [
        {
          "internalType": "uint256",
          "name": "tokenId",
          "type": "uint256"
        }
      ],
      "name": "getApproved",
      "outputs": [
        {
          "internalType": "address",
          "name": "",
          "type": "address"
        }
      ],
      "stateMutability": "view",
      "type": "function"
    },
    {
      "inputs": [
        {
          "internalType": "uint256",
          "name": "tokenId",
          "type": "uint256"
        }
      ],
      "name": "getGameData",
      "outputs": [
        {
          "internalType": "uint256",
          "name": "totalGamesPlayed",
          "type": "uint256"
        },
        {
          "components": [
            {
              "internalType": "uint256",
              "name": "gameId",
              "type": "uint256"
            },
            {
              "internalType": "uint256",
              "name": "achievementId",
              "type": "uint256"
            },
            {
              "internalType": "uint256",
              "name": "timestamp",
              "type": "uint256"
            },
            {
              "internalType": "bytes",
              "name": "metadata",
              "type": "bytes"
            }
          ],
          "internalType": "struct UGI.Achievement[]",
          "name": "achievements",
          "type": "tuple[]"
        }
      ],
      "stateMutability": "view",
      "type": "function"
    },
    {
      "inputs": [
        {
          "internalType": "address",
          "name": "",
          "type": "address"
        }
      ],
      "name": "hasMinted",
      "outputs": [
        {
          "internalType": "bool",
          "name": "",
          "type": "bool"
        }
      ],
      "stateMutability": "view",
      "type": "function"
    },
    {
      "inputs": [
        {
          "internalType": "address",
          "name": "owner",
          "type": "address"
        },
        {
          "internalType": "address",
          "name": "operator",
          "type": "address"
        }
      ],
      "name": "isApprovedForAll",
      "outputs": [
        {
          "internalType": "bool",
          "name": "",
          "type": "bool"
        }
      ],
      "stateMutability": "view",
      "type": "function"
    },
    {
      "inputs": [
        {
          "internalType": "address",
          "name": "user",
          "type": "address"
        },
        {
          "internalType": "uint256",
          "name": "amount",
          "type": "uint256"
        }
      ],
      "name": "mintUGI",
      "outputs": [],
      "stateMutability": "nonpayable",
      "type": "function"
    },
    {
      "inputs": [],
      "name": "name",
      "outputs": [
        {
          "internalType": "string",
          "name": "",
          "type": "string"
        }
      ],
      "stateMutability": "view",
      "type": "function"
    },
    {
      "inputs": [
        {
          "components": [
            {
              "internalType": "bytes",
              "name": "origin",
              "type": "bytes"
            },
            {
              "internalType": "address",
              "name": "sender",
              "type": "address"
            },
            {
              "internalType": "uint256",
              "name": "chainID",
              "type": "uint256"
            }
          ],
          "internalType": "struct zContext",
          "name": "context",
          "type": "tuple"
        },
        {
          "internalType": "address",
          "name": "zrc20",
          "type": "address"
        },
        {
          "internalType": "uint256",
          "name": "amount",
          "type": "uint256"
        },
        {
          "internalType": "bytes",
          "name": "message",
          "type": "bytes"
        }
      ],
      "name": "onCrossChainCall",
      "outputs": [],
      "stateMutability": "nonpayable",
      "type": "function"
    },
    {
      "inputs": [
        {
          "internalType": "uint256",
          "name": "tokenId",
          "type": "uint256"
        }
      ],
      "name": "ownerOf",
      "outputs": [
        {
          "internalType": "address",
          "name": "",
          "type": "address"
        }
      ],
      "stateMutability": "view",
      "type": "function"
    },
    {
      "inputs": [
        {
          "internalType": "address",
          "name": "from",
          "type": "address"
        },
        {
          "internalType": "address",
          "name": "to",
          "type": "address"
        },
        {
          "internalType": "uint256",
          "name": "tokenId",
          "type": "uint256"
        }
      ],
      "name": "safeTransferFrom",
      "outputs": [],
      "stateMutability": "nonpayable",
      "type": "function"
    },
    {
      "inputs": [
        {
          "internalType": "address",
          "name": "from",
          "type": "address"
        },
        {
          "internalType": "address",
          "name": "to",
          "type": "address"
        },
        {
          "internalType": "uint256",
          "name": "tokenId",
          "type": "uint256"
        },
        {
          "internalType": "bytes",
          "name": "data",
          "type": "bytes"
        }
      ],
      "name": "safeTransferFrom",
      "outputs": [],
      "stateMutability": "nonpayable",
      "type": "function"
    },
    {
      "inputs": [
        {
          "internalType": "address",
          "name": "operator",
          "type": "address"
        },
        {
          "internalType": "bool",
          "name": "approved",
          "type": "bool"
        }
      ],
      "name": "setApprovalForAll",
      "outputs": [],
      "stateMutability": "nonpayable",
      "type": "function"
    },
    {
      "inputs": [
        {
          "internalType": "bytes4",
          "name": "interfaceId",
          "type": "bytes4"
        }
      ],
      "name": "supportsInterface",
      "outputs": [
        {
          "internalType": "bool",
          "name": "",
          "type": "bool"
        }
      ],
      "stateMutability": "view",
      "type": "function"
    },
    {
      "inputs": [],
      "name": "symbol",
      "outputs": [
        {
          "internalType": "string",
          "name": "",
          "type": "string"
        }
      ],
      "stateMutability": "view",
      "type": "function"
    },
    {
      "inputs": [],
      "name": "systemContract",
      "outputs": [
        {
          "internalType": "contract SystemContract",
          "name": "",
          "type": "address"
        }
      ],
      "stateMutability": "view",
      "type": "function"
    },
    {
      "inputs": [
        {
          "internalType": "uint256",
          "name": "",
          "type": "uint256"
        }
      ],
      "name": "tokenAmounts",
      "outputs": [
        {
          "internalType": "uint256",
          "name": "",
          "type": "uint256"
        }
      ],
      "stateMutability": "view",
      "type": "function"
    },
    {
      "inputs": [
        {
          "internalType": "uint256",
          "name": "",
          "type": "uint256"
        }
      ],
      "name": "tokenChains",
      "outputs": [
        {
          "internalType": "uint256",
          "name": "",
          "type": "uint256"
        }
      ],
      "stateMutability": "view",
      "type": "function"
    },
    {
      "inputs": [
        {
          "internalType": "uint256",
          "name": "",
          "type": "uint256"
        }
      ],
      "name": "tokenGameData",
      "outputs": [
        {
          "internalType": "uint256",
          "name": "totalGamesPlayed",
          "type": "uint256"
        },
        {
          "internalType": "uint256",
          "name": "achievementCount",
          "type": "uint256"
        }
      ],
      "stateMutability": "view",
      "type": "function"
    },
    {
      "inputs": [
        {
          "internalType": "uint256",
          "name": "tokenId",
          "type": "uint256"
        }
      ],
      "name": "tokenURI",
      "outputs": [
        {
          "internalType": "string",
          "name": "",
          "type": "string"
        }
      ],
      "stateMutability": "view",
      "type": "function"
    },
    {
      "inputs": [
        {
          "internalType": "address",
          "name": "from",
          "type": "address"
        },
        {
          "internalType": "address",
          "name": "to",
          "type": "address"
        },
        {
          "internalType": "uint256",
          "name": "tokenId",
          "type": "uint256"
        }
      ],
      "name": "transferFrom",
      "outputs": [],
      "stateMutability": "nonpayable",
      "type": "function"
    },
    {
      "inputs": [
        {
          "internalType": "uint256",
          "name": "tokenId",
          "type": "uint256"
        },
        {
          "internalType": "bytes",
          "name": "gameData",
          "type": "bytes"
        }
      ],
      "name": "updateGameData",
      "outputs": [],
      "stateMutability": "nonpayable",
      "type": "function"
    }
  ],
  "bytecode": "0x60806040523480156200001157600080fd5b5060405162003f9038038062003f908339818101604052810190620000379190620001ee565b6040518060400160405280601781526020017f556e6976657273616c47616d696e674964656e746974790000000000000000008152506040518060400160405280600381526020017f55474900000000000000000000000000000000000000000000000000000000008152508160009080519060200190620000bb92919062000127565b508060019080519060200190620000d492919062000127565b50505080600660006101000a81548173ffffffffffffffffffffffffffffffffffffffff021916908373ffffffffffffffffffffffffffffffffffffffff1602179055506001600b8190555050620002d8565b828054620001359062000254565b90600052602060002090601f016020900481019282620001595760008555620001a5565b82601f106200017457805160ff1916838001178555620001a5565b82800160010185558215620001a5579182015b82811115620001a457825182559160200191906001019062000187565b5b509050620001b49190620001b8565b5090565b5b80821115620001d3576000816000905550600101620001b9565b5090565b600081519050620001e881620002be565b92915050565b600060208284031215620002075762000206620002b9565b5b60006200021784828501620001d7565b91505092915050565b60006200022d8262000234565b9050919050565b600073ffffffffffffffffffffffffffffffffffffffff82169050919050565b600060028204905060018216806200026d57607f821691505b602082108114156200028457620002836200028a565b5b50919050565b7f4e487b7100000000000000000000000000000000000000000000000000000000600052602260045260246000fd5b600080fd5b620002c98162000220565b8114620002d557600080fd5b50565b613ca880620002e86000396000f3fe608060405234801561001057600080fd5b506004361061014d5760003560e01c806370a08231116100c3578063b714d0d71161007c578063b714d0d7146103d3578063b88d4fde14610404578063bb88b76914610420578063c87b56dd1461043e578063de43156e1461046e578063e985e9c51461048a5761014d565b806370a08231146102ec57806376dcdf8a1461031c57806395d89b41146103385780639ad280c014610356578063a22cb46514610386578063b6a65665146103a25761014d565b80631ad50b73116101155780631ad50b731461021c57806323b872dd1461023857806338e21cce1461025457806342842e0e146102845780634c5e0e8c146102a05780636352211e146102bc5761014d565b806301ffc9a71461015257806306fdde0314610182578063081812fc146101a0578063095ea7b3146101d05780630ba111c2146101ec575b600080fd5b61016c60048036038101906101679190612aa7565b6104ba565b6040516101799190613178565b60405180910390f35b61018a61059c565b60405161019791906131de565b60405180910390f35b6101ba60048036038101906101b59190612ba5565b61062e565b6040516101c791906130e8565b60405180910390f35b6101ea60048036038101906101e591906129fa565b610674565b005b61020660048036038101906102019190612ba5565b61078c565b60405161021391906133a0565b60405180910390f35b61023660048036038101906102319190612c2e565b6107a4565b005b610252600480360381019061024d91906128e4565b61092d565b005b61026e6004803603810190610269919061281d565b61098d565b60405161027b9190613178565b60405180910390f35b61029e600480360381019061029991906128e4565b6109ad565b005b6102ba60048036038101906102b59190612c8e565b6109cd565b005b6102d660048036038101906102d19190612ba5565b610d17565b6040516102e391906130e8565b60405180910390f35b6103066004803603810190610301919061281d565b610d9e565b60405161031391906133a0565b60405180910390f35b610336600480360381019061033191906129fa565b610e56565b005b610340610e65565b60405161034d91906131de565b60405180910390f35b610370600480360381019061036b9190612ba5565b610ef7565b60405161037d91906133a0565b60405180910390f35b6103a0600480360381019061039b91906129ba565b610f0f565b005b6103bc60048036038101906103b79190612ba5565b610f25565b6040516103ca9291906133e4565b60405180910390f35b6103ed60048036038101906103e89190612ba5565b6110b8565b6040516103fb929190613414565b60405180910390f35b61041e60048036038101906104199190612937565b6110dc565b005b61042861113e565b60405161043591906131c3565b60405180910390f35b61045860048036038101906104539190612ba5565b611164565b60405161046591906131de565b60405180910390f35b61048860048036038101906104839190612b01565b6111cc565b005b6104a4600480360381019061049f91906128a4565b6112aa565b6040516104b19190613178565b60405180910390f35b60007f80ac58cd000000000000000000000000000000000000000000000000000000007bffffffffffffffffffffffffffffffffffffffffffffffffffffffff1916827bffffffffffffffffffffffffffffffffffffffffffffffffffffffff1916148061058557507f5b5e139f000000000000000000000000000000000000000000000000000000007bffffffffffffffffffffffffffffffffffffffffffffffffffffffff1916827bffffffffffffffffffffffffffffffffffffffffffffffffffffffff1916145b8061059557506105948261133e565b5b9050919050565b6060600080546105ab906136db565b80601f01602080910402602001604051908101604052809291908181526020018280546105d7906136db565b80156106245780601f106105f957610100808354040283529160200191610624565b820191906000526020600020905b81548152906001019060200180831161060757829003601f168201915b5050505050905090565b6000610639826113a8565b6004600083815260200190815260200160002060009054906101000a900473ffffffffffffffffffffffffffffffffffffffff169050919050565b600061067f82610d17565b90508073ffffffffffffffffffffffffffffffffffffffff168373ffffffffffffffffffffffffffffffffffffffff1614156106f0576040517f08c379a00000000000000000000000000000000000000000000000000000000081526004016106e790613360565b60405180910390fd5b8073ffffffffffffffffffffffffffffffffffffffff1661070f6113f3565b73ffffffffffffffffffffffffffffffffffffffff16148061073e575061073d816107386113f3565b6112aa565b5b61077d576040517f08c379a000000000000000000000000000000000000000000000000000000000815260040161077490613380565b60405180910390fd5b61078783836113fb565b505050565b60086020528060005260406000206000915090505481565b6107b56107af6113f3565b846114b4565b6107f4576040517f08c379a00000000000000000000000000000000000000000000000000000000081526004016107eb90613300565b60405180910390fd5b60008083838101906108069190612bd2565b915091506000600760008781526020019081526020016000209050828160000160008282546108359190613587565b9250508190555060005b82518110156108ed5760008260010154905083828151811061086457610863613814565b5b602002602001015183600201600083815260200190815260200160002060008201518160000155602082015181600101556040820151816002015560608201518160030190805190602001906108bb929190612460565b509050508260010160008154809291906108d49061373e565b91905055505080806108e59061373e565b91505061083f565b507f7b3d97e0a836fb8a2d605ef64e58448f31155750b3c417d1c6d977caf57120018660405161091d91906133a0565b60405180910390a1505050505050565b61093e6109386113f3565b826114b4565b61097d576040517f08c379a000000000000000000000000000000000000000000000000000000000815260040161097490613200565b60405180910390fd5b610988838383611549565b505050565b600a6020528060005260406000206000915054906101000a900460ff1681565b6109c8838383604051806020016040528060008152506110dc565b505050565b6109de6109d86113f3565b836114b4565b610a14576040517fcdf9253f00000000000000000000000000000000000000000000000000000000815260040160405180910390fd5b6000600660009054906101000a900473ffffffffffffffffffffffffffffffffffffffff1673ffffffffffffffffffffffffffffffffffffffff16630be1554760086000868152602001908152602001600020546040518263ffffffff1660e01b8152600401610a8491906133a0565b60206040518083038186803b158015610a9c57600080fd5b505afa158015610ab0573d6000803e3d6000fd5b505050506040513d601f19601f82011682018060405250810190610ad4919061284a565b905060008173ffffffffffffffffffffffffffffffffffffffff1663d9eeebed6040518163ffffffff1660e01b8152600401604080518083038186803b158015610b1d57600080fd5b505afa158015610b31573d6000803e3d6000fd5b505050506040513d601f19601f82011682018060405250810190610b559190612a3a565b9150508173ffffffffffffffffffffffffffffffffffffffff1663095ea7b383836040518363ffffffff1660e01b8152600401610b9392919061314f565b602060405180830381600087803b158015610bad57600080fd5b505af1158015610bc1573d6000803e3d6000fd5b505050506040513d601f19601f82011682018060405250810190610be59190612a7a565b508173ffffffffffffffffffffffffffffffffffffffff1663c701262684836040518363ffffffff1660e01b8152600401610c21929190613193565b602060405180830381600087803b158015610c3b57600080fd5b505af1158015610c4f573d6000803e3d6000fd5b505050506040513d601f19601f82011682018060405250810190610c739190612a7a565b50610c7d84611843565b60076000858152602001908152602001600020600080820160009055600182016000905550506008600085815260200190815260200160002060009055600a6000610cc786610d17565b73ffffffffffffffffffffffffffffffffffffffff1673ffffffffffffffffffffffffffffffffffffffff16815260200190815260200160002060006101000a81549060ff021916905550505050565b600080610d2383611991565b9050600073ffffffffffffffffffffffffffffffffffffffff168173ffffffffffffffffffffffffffffffffffffffff161415610d95576040517f08c379a0000000000000000000000000000000000000000000000000000000008152600401610d8c90613340565b60405180910390fd5b80915050919050565b60008073ffffffffffffffffffffffffffffffffffffffff168273ffffffffffffffffffffffffffffffffffffffff161415610e0f576040517f08c379a0000000000000000000000000000000000000000000000000000000008152600401610e06906132e0565b60405180910390fd5b600360008373ffffffffffffffffffffffffffffffffffffffff1673ffffffffffffffffffffffffffffffffffffffff168152602001908152602001600020549050919050565b610e618246836119ce565b5050565b606060018054610e74906136db565b80601f0160208091040260200160405190810160405280929190818152602001828054610ea0906136db565b8015610eed5780601f10610ec257610100808354040283529160200191610eed565b820191906000526020600020905b815481529060010190602001808311610ed057829003601f168201915b5050505050905090565b60096020528060005260406000206000915090505481565b610f21610f1a6113f3565b8383611b42565b5050565b60006060600060076000858152602001908152602001600020905080600001549250806001015467ffffffffffffffff811115610f6557610f64613843565b5b604051908082528060200260200182016040528015610f9e57816020015b610f8b6124e6565b815260200190600190039081610f835790505b50915060005b81600101548110156110b157816002016000828152602001908152602001600020604051806080016040529081600082015481526020016001820154815260200160028201548152602001600382018054610ffe906136db565b80601f016020809104026020016040519081016040528092919081815260200182805461102a906136db565b80156110775780601f1061104c57610100808354040283529160200191611077565b820191906000526020600020905b81548152906001019060200180831161105a57829003601f168201915b50505050508152505083828151811061109357611092613814565b5b602002602001018190525080806110a99061373e565b915050610fa4565b5050915091565b60076020528060005260406000206000915090508060000154908060010154905082565b6110ed6110e76113f3565b836114b4565b61112c576040517f08c379a000000000000000000000000000000000000000000000000000000000815260040161112390613200565b60405180910390fd5b61113884848484611caf565b50505050565b600660009054906101000a900473ffffffffffffffffffffffffffffffffffffffff1681565b606061116f826113a8565b6000611179611d0b565b9050600081511161119957604051806020016040528060008152506111c4565b806111a384611d22565b6040516020016111b49291906130c4565b6040516020818303038152906040525b915050919050565b600660009054906101000a900473ffffffffffffffffffffffffffffffffffffffff168073ffffffffffffffffffffffffffffffffffffffff163373ffffffffffffffffffffffffffffffffffffffff161461125d576040517f14c6658d00000000000000000000000000000000000000000000000000000000815260040161125490613240565b60405180910390fd5b600061479c876040013514156112805761127984846000611dfa565b9050611292565b838381019061128f9190612877565b90505b6112a1818860400135876119ce565b50505050505050565b6000600560008473ffffffffffffffffffffffffffffffffffffffff1673ffffffffffffffffffffffffffffffffffffffff16815260200190815260200160002060008373ffffffffffffffffffffffffffffffffffffffff1673ffffffffffffffffffffffffffffffffffffffff16815260200190815260200160002060009054906101000a900460ff16905092915050565b60007f01ffc9a7000000000000000000000000000000000000000000000000000000007bffffffffffffffffffffffffffffffffffffffffffffffffffffffff1916827bffffffffffffffffffffffffffffffffffffffffffffffffffffffff1916149050919050565b6113b181611e6f565b6113f0576040517f08c379a00000000000000000000000000000000000000000000000000000000081526004016113e790613340565b60405180910390fd5b50565b600033905090565b816004600083815260200190815260200160002060006101000a81548173ffffffffffffffffffffffffffffffffffffffff021916908373ffffffffffffffffffffffffffffffffffffffff160217905550808273ffffffffffffffffffffffffffffffffffffffff1661146e83610d17565b73ffffffffffffffffffffffffffffffffffffffff167f8c5be1e5ebec7d5bd14f71427d1e84f3dd0314c0f7b2291e5b200ac8c7c3b92560405160405180910390a45050565b6000806114c083610d17565b90508073ffffffffffffffffffffffffffffffffffffffff168473ffffffffffffffffffffffffffffffffffffffff161480611502575061150181856112aa565b5b8061154057508373ffffffffffffffffffffffffffffffffffffffff166115288461062e565b73ffffffffffffffffffffffffffffffffffffffff16145b91505092915050565b8273ffffffffffffffffffffffffffffffffffffffff1661156982610d17565b73ffffffffffffffffffffffffffffffffffffffff16146115bf576040517f08c379a00000000000000000000000000000000000000000000000000000000081526004016115b690613260565b60405180910390fd5b600073ffffffffffffffffffffffffffffffffffffffff168273ffffffffffffffffffffffffffffffffffffffff16141561162f576040517f08c379a0000000000000000000000000000000000000000000000000000000008152600401611626906132a0565b60405180910390fd5b61163c8383836001611eb0565b8273ffffffffffffffffffffffffffffffffffffffff1661165c82610d17565b73ffffffffffffffffffffffffffffffffffffffff16146116b2576040517f08c379a00000000000000000000000000000000000000000000000000000000081526004016116a990613260565b60405180910390fd5b6004600082815260200190815260200160002060006101000a81549073ffffffffffffffffffffffffffffffffffffffff02191690556001600360008573ffffffffffffffffffffffffffffffffffffffff1673ffffffffffffffffffffffffffffffffffffffff168152602001908152602001600020600082825403925050819055506001600360008473ffffffffffffffffffffffffffffffffffffffff1673ffffffffffffffffffffffffffffffffffffffff16815260200190815260200160002060008282540192505081905550816002600083815260200190815260200160002060006101000a81548173ffffffffffffffffffffffffffffffffffffffff021916908373ffffffffffffffffffffffffffffffffffffffff160217905550808273ffffffffffffffffffffffffffffffffffffffff168473ffffffffffffffffffffffffffffffffffffffff167fddf252ad1be2c89b69c2b068fc378daa952ba7f163c4a11628f55a4df523b3ef60405160405180910390a461183e8383836001611eb6565b505050565b600061184e82610d17565b905061185e816000846001611eb0565b61186782610d17565b90506004600083815260200190815260200160002060006101000a81549073ffffffffffffffffffffffffffffffffffffffff02191690556001600360008373ffffffffffffffffffffffffffffffffffffffff1673ffffffffffffffffffffffffffffffffffffffff168152602001908152602001600020600082825403925050819055506002600083815260200190815260200160002060006101000a81549073ffffffffffffffffffffffffffffffffffffffff021916905581600073ffffffffffffffffffffffffffffffffffffffff168273ffffffffffffffffffffffffffffffffffffffff167fddf252ad1be2c89b69c2b068fc378daa952ba7f163c4a11628f55a4df523b3ef60405160405180910390a461198d816000846001611eb6565b5050565b60006002600083815260200190815260200160002060009054906101000a900473ffffffffffffffffffffffffffffffffffffffff169050919050565b600a60008473ffffffffffffffffffffffffffffffffffffffff1673ffffffffffffffffffffffffffffffffffffffff16815260200190815260200160002060009054906101000a900460ff1615611a52576040517fddefae2800000000000000000000000000000000000000000000000000000000815260040160405180910390fd5b6000600b549050611a638482611ebc565b8260086000838152602001908152602001600020819055508160096000838152602001908152602001600020819055506001600a60008673ffffffffffffffffffffffffffffffffffffffff1673ffffffffffffffffffffffffffffffffffffffff16815260200190815260200160002060006101000a81548160ff021916908315150217905550600b6000815480929190611afe9061373e565b91905055507feeaa83a78ccf16ad12ecf574b4155aebe6b0de5fbabab61faa2cdb74b4615eaa8185604051611b349291906133bb565b60405180910390a150505050565b8173ffffffffffffffffffffffffffffffffffffffff168373ffffffffffffffffffffffffffffffffffffffff161415611bb1576040517f08c379a0000000000000000000000000000000000000000000000000000000008152600401611ba8906132c0565b60405180910390fd5b80600560008573ffffffffffffffffffffffffffffffffffffffff1673ffffffffffffffffffffffffffffffffffffffff16815260200190815260200160002060008473ffffffffffffffffffffffffffffffffffffffff1673ffffffffffffffffffffffffffffffffffffffff16815260200190815260200160002060006101000a81548160ff0219169083151502179055508173ffffffffffffffffffffffffffffffffffffffff168373ffffffffffffffffffffffffffffffffffffffff167f17307eab39ab6107e8899845ad3d59bd9653f200f220920489ca2b5937696c3183604051611ca29190613178565b60405180910390a3505050565b611cba848484611549565b611cc684848484611eda565b611d05576040517f08c379a0000000000000000000000000000000000000000000000000000000008152600401611cfc90613220565b60405180910390fd5b50505050565b606060405180602001604052806000815250905090565b606060006001611d3184612071565b01905060008167ffffffffffffffff811115611d5057611d4f613843565b5b6040519080825280601f01601f191660200182016040528015611d825781602001600182028036833780820191505090505b509050600082602001820190505b600115611def578080600190039150507f3031323334353637383961626364656600000000000000000000000000000000600a86061a8153600a8581611dd957611dd86137b6565b5b0494506000851415611dea57611def565b611d90565b819350505050919050565b60008084848490601486611e0e9190613587565b92611e1b9392919061354c565b8080601f016020809104026020016040519081016040528093929190818152602001838380828437600081840152601f19601f82011690508083019250505050505050905060148101519150509392505050565b60008073ffffffffffffffffffffffffffffffffffffffff16611e9183611991565b73ffffffffffffffffffffffffffffffffffffffff1614159050919050565b50505050565b50505050565b611ed68282604051806020016040528060008152506121c4565b5050565b6000611efb8473ffffffffffffffffffffffffffffffffffffffff1661221f565b15612064578373ffffffffffffffffffffffffffffffffffffffff1663150b7a02611f246113f3565b8786866040518563ffffffff1660e01b8152600401611f469493929190613103565b602060405180830381600087803b158015611f6057600080fd5b505af1925050508015611f9157506040513d601f19601f82011682018060405250810190611f8e9190612ad4565b60015b612014573d8060008114611fc1576040519150601f19603f3d011682016040523d82523d6000602084013e611fc6565b606091505b5060008151141561200c576040517f08c379a000000000000000000000000000000000000000000000000000000000815260040161200390613220565b60405180910390fd5b805181602001fd5b63150b7a0260e01b7bffffffffffffffffffffffffffffffffffffffffffffffffffffffff1916817bffffffffffffffffffffffffffffffffffffffffffffffffffffffff191614915050612069565b600190505b949350505050565b600080600090507a184f03e93ff9f4daa797ed6e38ed64bf6a1f01000000000000000083106120cf577a184f03e93ff9f4daa797ed6e38ed64bf6a1f01000000000000000083816120c5576120c46137b6565b5b0492506040810190505b6d04ee2d6d415b85acef8100000000831061210c576d04ee2d6d415b85acef81000000008381612102576121016137b6565b5b0492506020810190505b662386f26fc10000831061213b57662386f26fc100008381612131576121306137b6565b5b0492506010810190505b6305f5e1008310612164576305f5e100838161215a576121596137b6565b5b0492506008810190505b612710831061218957612710838161217f5761217e6137b6565b5b0492506004810190505b606483106121ac57606483816121a2576121a16137b6565b5b0492506002810190505b600a83106121bb576001810190505b80915050919050565b6121ce8383612242565b6121db6000848484611eda565b61221a576040517f08c379a000000000000000000000000000000000000000000000000000000000815260040161221190613220565b60405180910390fd5b505050565b6000808273ffffffffffffffffffffffffffffffffffffffff163b119050919050565b600073ffffffffffffffffffffffffffffffffffffffff168273ffffffffffffffffffffffffffffffffffffffff1614156122b2576040517f08c379a00000000000000000000000000000000000000000000000000000000081526004016122a990613320565b60405180910390fd5b6122bb81611e6f565b156122fb576040517f08c379a00000000000000000000000000000000000000000000000000000000081526004016122f290613280565b60405180910390fd5b612309600083836001611eb0565b61231281611e6f565b15612352576040517f08c379a000000000000000000000000000000000000000000000000000000000815260040161234990613280565b60405180910390fd5b6001600360008473ffffffffffffffffffffffffffffffffffffffff1673ffffffffffffffffffffffffffffffffffffffff16815260200190815260200160002060008282540192505081905550816002600083815260200190815260200160002060006101000a81548173ffffffffffffffffffffffffffffffffffffffff021916908373ffffffffffffffffffffffffffffffffffffffff160217905550808273ffffffffffffffffffffffffffffffffffffffff16600073ffffffffffffffffffffffffffffffffffffffff167fddf252ad1be2c89b69c2b068fc378daa952ba7f163c4a11628f55a4df523b3ef60405160405180910390a461245c600083836001611eb6565b5050565b82805461246c906136db565b90600052602060002090601f01602090048101928261248e57600085556124d5565b82601f106124a757805160ff19168380011785556124d5565b828001600101855582156124d5579182015b828111156124d45782518255916020019190600101906124b9565b5b5090506124e2919061250e565b5090565b6040518060800160405280600081526020016000815260200160008152602001606081525090565b5b8082111561252757600081600090555060010161250f565b5090565b600061253e61253984613462565b61343d565b9050808382526020820190508285602086028201111561256157612560613895565b5b60005b858110156125af57813567ffffffffffffffff81111561258757612586613877565b5b8086016125948982612740565b85526020850194506020840193505050600181019050612564565b5050509392505050565b60006125cc6125c78461348e565b61343d565b9050828152602081018484840111156125e8576125e761389a565b5b6125f3848285613699565b509392505050565b60008135905061260a81613bff565b92915050565b60008151905061261f81613bff565b92915050565b60008135905061263481613c16565b92915050565b600082601f83011261264f5761264e613877565b5b813561265f84826020860161252b565b91505092915050565b60008135905061267781613c2d565b92915050565b60008151905061268c81613c2d565b92915050565b6000813590506126a181613c44565b92915050565b6000815190506126b681613c44565b92915050565b60008083601f8401126126d2576126d1613877565b5b8235905067ffffffffffffffff8111156126ef576126ee613872565b5b60208301915083600182028301111561270b5761270a613895565b5b9250929050565b600082601f83011261272757612726613877565b5b81356127378482602086016125b9565b91505092915050565b60006080828403121561275657612755613881565b5b612760608061343d565b90506000612770848285016127f3565b6000830152506020612784848285016127f3565b6020830152506040612798848285016127f3565b604083015250606082013567ffffffffffffffff8111156127bc576127bb61388b565b5b6127c884828501612712565b60608301525092915050565b6000606082840312156127ea576127e961387c565b5b81905092915050565b60008135905061280281613c5b565b92915050565b60008151905061281781613c5b565b92915050565b600060208284031215612833576128326138a4565b5b6000612841848285016125fb565b91505092915050565b6000602082840312156128605761285f6138a4565b5b600061286e84828501612610565b91505092915050565b60006020828403121561288d5761288c6138a4565b5b600061289b84828501612625565b91505092915050565b600080604083850312156128bb576128ba6138a4565b5b60006128c9858286016125fb565b92505060206128da858286016125fb565b9150509250929050565b6000806000606084860312156128fd576128fc6138a4565b5b600061290b868287016125fb565b935050602061291c868287016125fb565b925050604061292d868287016127f3565b9150509250925092565b60008060008060808587031215612951576129506138a4565b5b600061295f878288016125fb565b9450506020612970878288016125fb565b9350506040612981878288016127f3565b925050606085013567ffffffffffffffff8111156129a2576129a161389f565b5b6129ae87828801612712565b91505092959194509250565b600080604083850312156129d1576129d06138a4565b5b60006129df858286016125fb565b92505060206129f085828601612668565b9150509250929050565b60008060408385031215612a1157612a106138a4565b5b6000612a1f858286016125fb565b9250506020612a30858286016127f3565b9150509250929050565b60008060408385031215612a5157612a506138a4565b5b6000612a5f85828601612610565b9250506020612a7085828601612808565b9150509250929050565b600060208284031215612a9057612a8f6138a4565b5b6000612a9e8482850161267d565b91505092915050565b600060208284031215612abd57612abc6138a4565b5b6000612acb84828501612692565b91505092915050565b600060208284031215612aea57612ae96138a4565b5b6000612af8848285016126a7565b91505092915050565b600080600080600060808688031215612b1d57612b1c6138a4565b5b600086013567ffffffffffffffff811115612b3b57612b3a61389f565b5b612b47888289016127d4565b9550506020612b58888289016125fb565b9450506040612b69888289016127f3565b935050606086013567ffffffffffffffff811115612b8a57612b8961389f565b5b612b96888289016126bc565b92509250509295509295909350565b600060208284031215612bbb57612bba6138a4565b5b6000612bc9848285016127f3565b91505092915050565b60008060408385031215612be957612be86138a4565b5b6000612bf7858286016127f3565b925050602083013567ffffffffffffffff811115612c1857612c1761389f565b5b612c248582860161263a565b9150509250929050565b600080600060408486031215612c4757612c466138a4565b5b6000612c55868287016127f3565b935050602084013567ffffffffffffffff811115612c7657612c7561389f565b5b612c82868287016126bc565b92509250509250925092565b60008060408385031215612ca557612ca46138a4565b5b6000612cb3858286016127f3565b925050602083013567ffffffffffffffff811115612cd457612cd361389f565b5b612ce085828601612712565b9150509250929050565b6000612cf68383613043565b905092915050565b612d07816135dd565b82525050565b6000612d18826134cf565b612d2281856134fd565b935083602082028501612d34856134bf565b8060005b85811015612d705784840389528151612d518582612cea565b9450612d5c836134f0565b925060208a01995050600181019050612d38565b50829750879550505050505092915050565b612d8b81613601565b82525050565b6000612d9c826134da565b612da6818561350e565b9350612db68185602086016136a8565b612dbf816138a9565b840191505092915050565b6000612dd5826134da565b612ddf818561351f565b9350612def8185602086016136a8565b612df8816138a9565b840191505092915050565b612e0c81613663565b82525050565b6000612e1d826134e5565b612e278185613530565b9350612e378185602086016136a8565b612e40816138a9565b840191505092915050565b6000612e56826134e5565b612e608185613541565b9350612e708185602086016136a8565b80840191505092915050565b6000612e89602d83613530565b9150612e94826138ba565b604082019050919050565b6000612eac603283613530565b9150612eb782613909565b604082019050919050565b6000612ecf602b83613530565b9150612eda82613958565b604082019050919050565b6000612ef2602583613530565b9150612efd826139a7565b604082019050919050565b6000612f15601c83613530565b9150612f20826139f6565b602082019050919050565b6000612f38602483613530565b9150612f4382613a1f565b604082019050919050565b6000612f5b601983613530565b9150612f6682613a6e565b602082019050919050565b6000612f7e602983613530565b9150612f8982613a97565b604082019050919050565b6000612fa1601583613530565b9150612fac82613ae6565b602082019050919050565b6000612fc4602083613530565b9150612fcf82613b0f565b602082019050919050565b6000612fe7601883613530565b9150612ff282613b38565b602082019050919050565b600061300a602183613530565b915061301582613b61565b604082019050919050565b600061302d603d83613530565b915061303882613bb0565b604082019050919050565b600060808301600083015161305b60008601826130a6565b50602083015161306e60208601826130a6565b50604083015161308160408601826130a6565b50606083015184820360608601526130998282612d91565b9150508091505092915050565b6130af81613659565b82525050565b6130be81613659565b82525050565b60006130d08285612e4b565b91506130dc8284612e4b565b91508190509392505050565b60006020820190506130fd6000830184612cfe565b92915050565b60006080820190506131186000830187612cfe565b6131256020830186612cfe565b61313260408301856130b5565b81810360608301526131448184612dca565b905095945050505050565b60006040820190506131646000830185612cfe565b61317160208301846130b5565b9392505050565b600060208201905061318d6000830184612d82565b92915050565b600060408201905081810360008301526131ad8185612dca565b90506131bc60208301846130b5565b9392505050565b60006020820190506131d86000830184612e03565b92915050565b600060208201905081810360008301526131f88184612e12565b905092915050565b6000602082019050818103600083015261321981612e7c565b9050919050565b6000602082019050818103600083015261323981612e9f565b9050919050565b6000602082019050818103600083015261325981612ec2565b9050919050565b6000602082019050818103600083015261327981612ee5565b9050919050565b6000602082019050818103600083015261329981612f08565b9050919050565b600060208201905081810360008301526132b981612f2b565b9050919050565b600060208201905081810360008301526132d981612f4e565b9050919050565b600060208201905081810360008301526132f981612f71565b9050919050565b6000602082019050818103600083015261331981612f94565b9050919050565b6000602082019050818103600083015261333981612fb7565b9050919050565b6000602082019050818103600083015261335981612fda565b9050919050565b6000602082019050818103600083015261337981612ffd565b9050919050565b6000602082019050818103600083015261339981613020565b9050919050565b60006020820190506133b560008301846130b5565b92915050565b60006040820190506133d060008301856130b5565b6133dd6020830184612cfe565b9392505050565b60006040820190506133f960008301856130b5565b818103602083015261340b8184612d0d565b90509392505050565b600060408201905061342960008301856130b5565b61343660208301846130b5565b9392505050565b6000613447613458565b9050613453828261370d565b919050565b6000604051905090565b600067ffffffffffffffff82111561347d5761347c613843565b5b602082029050602081019050919050565b600067ffffffffffffffff8211156134a9576134a8613843565b5b6134b2826138a9565b9050602081019050919050565b6000819050602082019050919050565b600081519050919050565b600081519050919050565b600081519050919050565b6000602082019050919050565b600082825260208201905092915050565b600082825260208201905092915050565b600082825260208201905092915050565b600082825260208201905092915050565b600081905092915050565b600080858511156135605761355f613890565b5b8386111561357157613570613886565b5b6001850283019150848603905094509492505050565b600061359282613659565b915061359d83613659565b9250827fffffffffffffffffffffffffffffffffffffffffffffffffffffffffffffffff038211156135d2576135d1613787565b5b828201905092915050565b60006135e882613639565b9050919050565b60006135fa82613639565b9050919050565b60008115159050919050565b60007fffffffff0000000000000000000000000000000000000000000000000000000082169050919050565b600073ffffffffffffffffffffffffffffffffffffffff82169050919050565b6000819050919050565b600061366e82613675565b9050919050565b600061368082613687565b9050919050565b600061369282613639565b9050919050565b82818337600083830152505050565b60005b838110156136c65780820151818401526020810190506136ab565b838111156136d5576000848401525b50505050565b600060028204905060018216806136f357607f821691505b60208210811415613707576137066137e5565b5b50919050565b613716826138a9565b810181811067ffffffffffffffff8211171561373557613734613843565b5b80604052505050565b600061374982613659565b91507fffffffffffffffffffffffffffffffffffffffffffffffffffffffffffffffff82141561377c5761377b613787565b5b600182019050919050565b7f4e487b7100000000000000000000000000000000000000000000000000000000600052601160045260246000fd5b7f4e487b7100000000000000000000000000000000000000000000000000000000600052601260045260246000fd5b7f4e487b7100000000000000000000000000000000000000000000000000000000600052602260045260246000fd5b7f4e487b7100000000000000000000000000000000000000000000000000000000600052603260045260246000fd5b7f4e487b7100000000000000000000000000000000000000000000000000000000600052604160045260246000fd5b600080fd5b600080fd5b600080fd5b600080fd5b600080fd5b600080fd5b600080fd5b600080fd5b600080fd5b600080fd5b600080fd5b6000601f19601f8301169050919050565b7f4552433732313a2063616c6c6572206973206e6f7420746f6b656e206f776e6560008201527f72206f7220617070726f76656400000000000000000000000000000000000000602082015250565b7f4552433732313a207472616e7366657220746f206e6f6e20455243373231526560008201527f63656976657220696d706c656d656e7465720000000000000000000000000000602082015250565b7f4f6e6c792073797374656d20636f6e74726163742063616e2063616c6c20746860008201527f69732066756e6374696f6e000000000000000000000000000000000000000000602082015250565b7f4552433732313a207472616e736665722066726f6d20696e636f72726563742060008201527f6f776e6572000000000000000000000000000000000000000000000000000000602082015250565b7f4552433732313a20746f6b656e20616c7265616479206d696e74656400000000600082015250565b7f4552433732313a207472616e7366657220746f20746865207a65726f2061646460008201527f7265737300000000000000000000000000000000000000000000000000000000602082015250565b7f4552433732313a20617070726f766520746f2063616c6c657200000000000000600082015250565b7f4552433732313a2061646472657373207a65726f206973206e6f74206120766160008201527f6c6964206f776e65720000000000000000000000000000000000000000000000602082015250565b7f4e6f74206f776e6572206f7220617070726f7665640000000000000000000000600082015250565b7f4552433732313a206d696e7420746f20746865207a65726f2061646472657373600082015250565b7f4552433732313a20696e76616c696420746f6b656e2049440000000000000000600082015250565b7f4552433732313a20617070726f76616c20746f2063757272656e74206f776e6560008201527f7200000000000000000000000000000000000000000000000000000000000000602082015250565b7f4552433732313a20617070726f76652063616c6c6572206973206e6f7420746f60008201527f6b656e206f776e6572206f7220617070726f76656420666f7220616c6c000000602082015250565b613c08816135dd565b8114613c1357600080fd5b50565b613c1f816135ef565b8114613c2a57600080fd5b50565b613c3681613601565b8114613c4157600080fd5b50565b613c4d8161360d565b8114613c5857600080fd5b50565b613c6481613659565b8114613c6f57600080fd5b5056fea264697066735822122056e63adb3632f085be91108316ff60494016f75b045ce58b183f0ef94b757b5b64736f6c63430008070033",
  "linkReferences": {},
  "deployedLinkReferences": {}
}